{
  "_format": "hh-sol-artifact-1",
  "contractName": "Escrow",
  "sourceName": "contracts/Escrow.sol",
  "abi": [
    {
      "inputs": [
        {
          "internalType": "address",
          "name": "_nftAddress",
          "type": "address"
        },
        {
          "internalType": "address payable",
          "name": "_seller",
          "type": "address"
        },
        {
          "internalType": "address",
          "name": "_inspector",
          "type": "address"
        },
        {
          "internalType": "address",
          "name": "_lender",
          "type": "address"
        }
      ],
      "stateMutability": "nonpayable",
      "type": "constructor"
    },
    {
      "inputs": [
        {
          "internalType": "uint256",
          "name": "",
          "type": "uint256"
        }
      ],
      "name": "buyer",
      "outputs": [
        {
          "internalType": "address",
          "name": "",
          "type": "address"
        }
      ],
      "stateMutability": "view",
      "type": "function"
    },
    {
      "inputs": [
        {
          "internalType": "uint256",
          "name": "_nftID",
          "type": "uint256"
        }
      ],
      "name": "depositEarnest",
      "outputs": [],
      "stateMutability": "payable",
      "type": "function"
    },
    {
      "inputs": [
        {
          "internalType": "uint256",
          "name": "",
          "type": "uint256"
        }
      ],
      "name": "escrowAmount",
      "outputs": [
        {
          "internalType": "uint256",
          "name": "",
          "type": "uint256"
        }
      ],
      "stateMutability": "view",
      "type": "function"
    },
    {
      "inputs": [],
      "name": "getBalance",
      "outputs": [
        {
          "internalType": "uint256",
          "name": "",
          "type": "uint256"
        }
      ],
      "stateMutability": "view",
      "type": "function"
    },
    {
      "inputs": [
        {
          "internalType": "uint256",
          "name": "",
          "type": "uint256"
        }
      ],
      "name": "inspectionPassed",
      "outputs": [
        {
          "internalType": "bool",
          "name": "",
          "type": "bool"
        }
      ],
      "stateMutability": "view",
      "type": "function"
    },
    {
      "inputs": [],
      "name": "inspector",
      "outputs": [
        {
          "internalType": "address",
          "name": "",
          "type": "address"
        }
      ],
      "stateMutability": "view",
      "type": "function"
    },
    {
      "inputs": [
        {
          "internalType": "uint256",
          "name": "",
          "type": "uint256"
        }
      ],
      "name": "isListed",
      "outputs": [
        {
          "internalType": "bool",
          "name": "",
          "type": "bool"
        }
      ],
      "stateMutability": "view",
      "type": "function"
    },
    {
      "inputs": [],
      "name": "lender",
      "outputs": [
        {
          "internalType": "address",
          "name": "",
          "type": "address"
        }
      ],
      "stateMutability": "view",
      "type": "function"
    },
    {
      "inputs": [
        {
          "internalType": "uint256",
          "name": "_nftID",
          "type": "uint256"
        },
        {
          "internalType": "address",
          "name": "_buyer",
          "type": "address"
        },
        {
          "internalType": "uint256",
          "name": "_purchasePrice",
          "type": "uint256"
        },
        {
          "internalType": "uint256",
          "name": "_escrowAmount",
          "type": "uint256"
        }
      ],
      "name": "list",
      "outputs": [],
      "stateMutability": "payable",
      "type": "function"
    },
    {
      "inputs": [],
      "name": "nftAddress",
      "outputs": [
        {
          "internalType": "address",
          "name": "",
          "type": "address"
        }
      ],
      "stateMutability": "view",
      "type": "function"
    },
    {
      "inputs": [
        {
          "internalType": "uint256",
          "name": "",
          "type": "uint256"
        }
      ],
      "name": "purchasePrice",
      "outputs": [
        {
          "internalType": "uint256",
          "name": "",
          "type": "uint256"
        }
      ],
      "stateMutability": "view",
      "type": "function"
    },
    {
      "inputs": [],
      "name": "seller",
      "outputs": [
        {
          "internalType": "address payable",
          "name": "",
          "type": "address"
        }
      ],
      "stateMutability": "view",
      "type": "function"
    },
    {
      "inputs": [
        {
          "internalType": "uint256",
          "name": "_nftID",
          "type": "uint256"
        },
        {
          "internalType": "bool",
          "name": "_passed",
          "type": "bool"
        }
      ],
      "name": "updateInspectionStatus",
      "outputs": [],
      "stateMutability": "nonpayable",
      "type": "function"
    },
    {
      "stateMutability": "payable",
      "type": "receive"
    }
  ],
  "bytecode": "0x60806040523480156200001157600080fd5b5060405162000f5838038062000f588339818101604052810190620000379190620001f3565b836000806101000a81548173ffffffffffffffffffffffffffffffffffffffff021916908373ffffffffffffffffffffffffffffffffffffffff16021790555082600160006101000a81548173ffffffffffffffffffffffffffffffffffffffff021916908373ffffffffffffffffffffffffffffffffffffffff16021790555081600260006101000a81548173ffffffffffffffffffffffffffffffffffffffff021916908373ffffffffffffffffffffffffffffffffffffffff16021790555080600360006101000a81548173ffffffffffffffffffffffffffffffffffffffff021916908373ffffffffffffffffffffffffffffffffffffffff1602179055505050505062000265565b600080fd5b600073ffffffffffffffffffffffffffffffffffffffff82169050919050565b6000620001768262000149565b9050919050565b620001888162000169565b81146200019457600080fd5b50565b600081519050620001a8816200017d565b92915050565b6000620001bb8262000149565b9050919050565b620001cd81620001ae565b8114620001d957600080fd5b50565b600081519050620001ed81620001c2565b92915050565b6000806000806080858703121562000210576200020f62000144565b5b6000620002208782880162000197565b94505060206200023387828801620001dc565b9350506040620002468782880162000197565b9250506060620002598782880162000197565b91505092959194509250565b610ce380620002756000396000f3fe6080604052600436106100c65760003560e01c806377fbc4ae1161007f578063c9f0ec7e11610059578063c9f0ec7e1461029b578063e740f770146102b7578063ed2cee9e146102d3578063fcce4883146102fe576100cd565b806377fbc4ae1461020a5780639d0e5fd614610247578063bcead63e14610270576100cd565b806308551a53146100d257806312065fe0146100fd5780634dd4acaf146101285780635bf8633a146101655780635d19e56c146101905780635eed5fff146101cd576100cd565b366100cd57005b600080fd5b3480156100de57600080fd5b506100e761033b565b6040516100f4919061084b565b60405180910390f35b34801561010957600080fd5b50610112610361565b60405161011f919061087f565b60405180910390f35b34801561013457600080fd5b5061014f600480360381019061014a91906108cb565b610369565b60405161015c9190610919565b60405180910390f35b34801561017157600080fd5b5061017a61039c565b6040516101879190610919565b60405180910390f35b34801561019c57600080fd5b506101b760048036038101906101b291906108cb565b6103c0565b6040516101c4919061087f565b60405180910390f35b3480156101d957600080fd5b506101f460048036038101906101ef91906108cb565b6103d8565b604051610201919061094f565b60405180910390f35b34801561021657600080fd5b50610231600480360381019061022c91906108cb565b6103f8565b60405161023e919061087f565b60405180910390f35b34801561025357600080fd5b5061026e60048036038101906102699190610996565b610410565b005b34801561027c57600080fd5b506102856104cf565b6040516102929190610919565b60405180910390f35b6102b560048036038101906102b09190610a02565b6104f5565b005b6102d160048036038101906102cc91906108cb565b6106c8565b005b3480156102df57600080fd5b506102e86107c4565b6040516102f59190610919565b60405180910390f35b34801561030a57600080fd5b50610325600480360381019061032091906108cb565b6107ea565b604051610332919061094f565b60405180910390f35b600160009054906101000a900473ffffffffffffffffffffffffffffffffffffffff1681565b600047905090565b60076020528060005260406000206000915054906101000a900473ffffffffffffffffffffffffffffffffffffffff1681565b60008054906101000a900473ffffffffffffffffffffffffffffffffffffffff1681565b60066020528060005260406000206000915090505481565b60086020528060005260406000206000915054906101000a900460ff1681565b60056020528060005260406000206000915090505481565b600260009054906101000a900473ffffffffffffffffffffffffffffffffffffffff1673ffffffffffffffffffffffffffffffffffffffff163373ffffffffffffffffffffffffffffffffffffffff16146104a0576040517f08c379a000000000000000000000000000000000000000000000000000000000815260040161049790610aec565b60405180910390fd5b806008600084815260200190815260200160002060006101000a81548160ff0219169083151502179055505050565b600360009054906101000a900473ffffffffffffffffffffffffffffffffffffffff1681565b600160009054906101000a900473ffffffffffffffffffffffffffffffffffffffff1673ffffffffffffffffffffffffffffffffffffffff163373ffffffffffffffffffffffffffffffffffffffff1614610585576040517f08c379a000000000000000000000000000000000000000000000000000000000815260040161057c90610b58565b60405180910390fd5b60008054906101000a900473ffffffffffffffffffffffffffffffffffffffff1673ffffffffffffffffffffffffffffffffffffffff166323b872dd3330876040518463ffffffff1660e01b81526004016105e293929190610b78565b600060405180830381600087803b1580156105fc57600080fd5b505af1158015610610573d6000803e3d6000fd5b5050505060016004600086815260200190815260200160002060006101000a81548160ff021916908315150217905550816005600086815260200190815260200160002081905550806006600086815260200190815260200160002081905550826007600086815260200190815260200160002060006101000a81548173ffffffffffffffffffffffffffffffffffffffff021916908373ffffffffffffffffffffffffffffffffffffffff16021790555050505050565b806007600082815260200190815260200160002060009054906101000a900473ffffffffffffffffffffffffffffffffffffffff1673ffffffffffffffffffffffffffffffffffffffff163373ffffffffffffffffffffffffffffffffffffffff161461076a576040517f08c379a000000000000000000000000000000000000000000000000000000000815260040161076190610bfb565b60405180910390fd5b60066000838152602001908152602001600020543410156107c0576040517f08c379a00000000000000000000000000000000000000000000000000000000081526004016107b790610c8d565b60405180910390fd5b5050565b600260009054906101000a900473ffffffffffffffffffffffffffffffffffffffff1681565b60046020528060005260406000206000915054906101000a900460ff1681565b600073ffffffffffffffffffffffffffffffffffffffff82169050919050565b60006108358261080a565b9050919050565b6108458161082a565b82525050565b6000602082019050610860600083018461083c565b92915050565b6000819050919050565b61087981610866565b82525050565b60006020820190506108946000830184610870565b92915050565b600080fd5b6108a881610866565b81146108b357600080fd5b50565b6000813590506108c58161089f565b92915050565b6000602082840312156108e1576108e061089a565b5b60006108ef848285016108b6565b91505092915050565b60006109038261080a565b9050919050565b610913816108f8565b82525050565b600060208201905061092e600083018461090a565b92915050565b60008115159050919050565b61094981610934565b82525050565b60006020820190506109646000830184610940565b92915050565b61097381610934565b811461097e57600080fd5b50565b6000813590506109908161096a565b92915050565b600080604083850312156109ad576109ac61089a565b5b60006109bb858286016108b6565b92505060206109cc85828601610981565b9150509250929050565b6109df816108f8565b81146109ea57600080fd5b50565b6000813590506109fc816109d6565b92915050565b60008060008060808587031215610a1c57610a1b61089a565b5b6000610a2a878288016108b6565b9450506020610a3b878288016109ed565b9350506040610a4c878288016108b6565b9250506060610a5d878288016108b6565b91505092959194509250565b600082825260208201905092915050565b7f4f6e6c7920696e73706563746f722063616e2063616c6c2074686973206d657460008201527f686f640000000000000000000000000000000000000000000000000000000000602082015250565b6000610ad6602383610a69565b9150610ae182610a7a565b604082019050919050565b60006020820190508181036000830152610b0581610ac9565b9050919050565b7f4f6e6c792073656c6c65722063616e2063616c6c2074686973206d6574686f64600082015250565b6000610b42602083610a69565b9150610b4d82610b0c565b602082019050919050565b60006020820190508181036000830152610b7181610b35565b9050919050565b6000606082019050610b8d600083018661090a565b610b9a602083018561090a565b610ba76040830184610870565b949350505050565b7f4f6e6c792062757965722063616e2063616c6c2074686973206d6574686f6400600082015250565b6000610be5601f83610a69565b9150610bf082610baf565b602082019050919050565b60006020820190508181036000830152610c1481610bd8565b9050919050565b7f416d6f756e74206e6565647320746f206265206d6f7265207468616e2065736360008201527f726f7720616d6f756e7400000000000000000000000000000000000000000000602082015250565b6000610c77602a83610a69565b9150610c8282610c1b565b604082019050919050565b60006020820190508181036000830152610ca681610c6a565b905091905056fea2646970667358221220724ed1ddb1e90fb94b30bb08caf972d7fb29d0621d5edd0f5b4726a5bc16404f64736f6c63430008110033",
  "linkReferences": {},
  "deployedLinkReferences": {}
}