{
  "_format": "hh-sol-artifact-1",
  "contractName": "Escrow",
  "sourceName": "contracts/Escrow.sol",
  "abi": [
    {
      "inputs": [
        {
          "internalType": "address",
          "name": "_nftAddress",
          "type": "address"
        },
        {
          "internalType": "address payable",
          "name": "_seller",
          "type": "address"
        },
        {
          "internalType": "address",
          "name": "_inspector",
          "type": "address"
        },
        {
          "internalType": "address",
          "name": "_lender",
          "type": "address"
        }
      ],
      "stateMutability": "nonpayable",
      "type": "constructor"
    },
    {
      "inputs": [
        {
          "internalType": "uint256",
          "name": "",
          "type": "uint256"
        }
      ],
      "name": "buyer",
      "outputs": [
        {
          "internalType": "address",
          "name": "",
          "type": "address"
        }
      ],
      "stateMutability": "view",
      "type": "function"
    },
    {
      "inputs": [
        {
          "internalType": "uint256",
          "name": "_nftID",
          "type": "uint256"
        }
      ],
      "name": "depositEarnest",
      "outputs": [],
      "stateMutability": "payable",
      "type": "function"
    },
    {
      "inputs": [
        {
          "internalType": "uint256",
          "name": "",
          "type": "uint256"
        }
      ],
      "name": "escrowAmount",
      "outputs": [
        {
          "internalType": "uint256",
          "name": "",
          "type": "uint256"
        }
      ],
      "stateMutability": "view",
      "type": "function"
    },
    {
      "inputs": [],
      "name": "getBalance",
      "outputs": [
        {
          "internalType": "uint256",
          "name": "",
          "type": "uint256"
        }
      ],
      "stateMutability": "view",
      "type": "function"
    },
    {
      "inputs": [],
      "name": "inspector",
      "outputs": [
        {
          "internalType": "address",
          "name": "",
          "type": "address"
        }
      ],
      "stateMutability": "view",
      "type": "function"
    },
    {
      "inputs": [
        {
          "internalType": "uint256",
          "name": "",
          "type": "uint256"
        }
      ],
      "name": "isListed",
      "outputs": [
        {
          "internalType": "bool",
          "name": "",
          "type": "bool"
        }
      ],
      "stateMutability": "view",
      "type": "function"
    },
    {
      "inputs": [],
      "name": "lender",
      "outputs": [
        {
          "internalType": "address",
          "name": "",
          "type": "address"
        }
      ],
      "stateMutability": "view",
      "type": "function"
    },
    {
      "inputs": [
        {
          "internalType": "uint256",
          "name": "_nftID",
          "type": "uint256"
        },
        {
          "internalType": "address",
          "name": "_buyer",
          "type": "address"
        },
        {
          "internalType": "uint256",
          "name": "_purchasePrice",
          "type": "uint256"
        },
        {
          "internalType": "uint256",
          "name": "_escrowAmount",
          "type": "uint256"
        }
      ],
      "name": "list",
      "outputs": [],
      "stateMutability": "payable",
      "type": "function"
    },
    {
      "inputs": [],
      "name": "nftAddress",
      "outputs": [
        {
          "internalType": "address",
          "name": "",
          "type": "address"
        }
      ],
      "stateMutability": "view",
      "type": "function"
    },
    {
      "inputs": [
        {
          "internalType": "uint256",
          "name": "",
          "type": "uint256"
        }
      ],
      "name": "purchasePrice",
      "outputs": [
        {
          "internalType": "uint256",
          "name": "",
          "type": "uint256"
        }
      ],
      "stateMutability": "view",
      "type": "function"
    },
    {
      "inputs": [],
      "name": "seller",
      "outputs": [
        {
          "internalType": "address payable",
          "name": "",
          "type": "address"
        }
      ],
      "stateMutability": "view",
      "type": "function"
    },
    {
      "stateMutability": "payable",
      "type": "receive"
    }
  ],
  "bytecode": "0x60806040523480156200001157600080fd5b5060405162000cef38038062000cef8339818101604052810190620000379190620001f3565b836000806101000a81548173ffffffffffffffffffffffffffffffffffffffff021916908373ffffffffffffffffffffffffffffffffffffffff16021790555082600160006101000a81548173ffffffffffffffffffffffffffffffffffffffff021916908373ffffffffffffffffffffffffffffffffffffffff16021790555081600260006101000a81548173ffffffffffffffffffffffffffffffffffffffff021916908373ffffffffffffffffffffffffffffffffffffffff16021790555080600360006101000a81548173ffffffffffffffffffffffffffffffffffffffff021916908373ffffffffffffffffffffffffffffffffffffffff1602179055505050505062000265565b600080fd5b600073ffffffffffffffffffffffffffffffffffffffff82169050919050565b6000620001768262000149565b9050919050565b620001888162000169565b81146200019457600080fd5b50565b600081519050620001a8816200017d565b92915050565b6000620001bb8262000149565b9050919050565b620001cd81620001ae565b8114620001d957600080fd5b50565b600081519050620001ed81620001c2565b92915050565b6000806000806080858703121562000210576200020f62000144565b5b6000620002208782880162000197565b94505060206200023387828801620001dc565b9350506040620002468782880162000197565b9250506060620002598782880162000197565b91505092959194509250565b610a7a80620002756000396000f3fe6080604052600436106100a05760003560e01c806377fbc4ae1161006457806377fbc4ae146101a7578063bcead63e146101e4578063c9f0ec7e1461020f578063e740f7701461022b578063ed2cee9e14610247578063fcce488314610272576100a7565b806308551a53146100ac57806312065fe0146100d75780634dd4acaf146101025780635bf8633a1461013f5780635d19e56c1461016a576100a7565b366100a757005b600080fd5b3480156100b857600080fd5b506100c16102af565b6040516100ce91906106e0565b60405180910390f35b3480156100e357600080fd5b506100ec6102d5565b6040516100f99190610714565b60405180910390f35b34801561010e57600080fd5b5061012960048036038101906101249190610760565b6102dd565b60405161013691906107ae565b60405180910390f35b34801561014b57600080fd5b50610154610310565b60405161016191906107ae565b60405180910390f35b34801561017657600080fd5b50610191600480360381019061018c9190610760565b610334565b60405161019e9190610714565b60405180910390f35b3480156101b357600080fd5b506101ce60048036038101906101c99190610760565b61034c565b6040516101db9190610714565b60405180910390f35b3480156101f057600080fd5b506101f9610364565b60405161020691906107ae565b60405180910390f35b610229600480360381019061022491906107f5565b61038a565b005b61024560048036038101906102409190610760565b61055d565b005b34801561025357600080fd5b5061025c610659565b60405161026991906107ae565b60405180910390f35b34801561027e57600080fd5b5061029960048036038101906102949190610760565b61067f565b6040516102a69190610877565b60405180910390f35b600160009054906101000a900473ffffffffffffffffffffffffffffffffffffffff1681565b600047905090565b60076020528060005260406000206000915054906101000a900473ffffffffffffffffffffffffffffffffffffffff1681565b60008054906101000a900473ffffffffffffffffffffffffffffffffffffffff1681565b60066020528060005260406000206000915090505481565b60056020528060005260406000206000915090505481565b600360009054906101000a900473ffffffffffffffffffffffffffffffffffffffff1681565b600160009054906101000a900473ffffffffffffffffffffffffffffffffffffffff1673ffffffffffffffffffffffffffffffffffffffff163373ffffffffffffffffffffffffffffffffffffffff161461041a576040517f08c379a0000000000000000000000000000000000000000000000000000000008152600401610411906108ef565b60405180910390fd5b60008054906101000a900473ffffffffffffffffffffffffffffffffffffffff1673ffffffffffffffffffffffffffffffffffffffff166323b872dd3330876040518463ffffffff1660e01b81526004016104779392919061090f565b600060405180830381600087803b15801561049157600080fd5b505af11580156104a5573d6000803e3d6000fd5b5050505060016004600086815260200190815260200160002060006101000a81548160ff021916908315150217905550816005600086815260200190815260200160002081905550806006600086815260200190815260200160002081905550826007600086815260200190815260200160002060006101000a81548173ffffffffffffffffffffffffffffffffffffffff021916908373ffffffffffffffffffffffffffffffffffffffff16021790555050505050565b806007600082815260200190815260200160002060009054906101000a900473ffffffffffffffffffffffffffffffffffffffff1673ffffffffffffffffffffffffffffffffffffffff163373ffffffffffffffffffffffffffffffffffffffff16146105ff576040517f08c379a00000000000000000000000000000000000000000000000000000000081526004016105f690610992565b60405180910390fd5b6006600083815260200190815260200160002054341015610655576040517f08c379a000000000000000000000000000000000000000000000000000000000815260040161064c90610a24565b60405180910390fd5b5050565b600260009054906101000a900473ffffffffffffffffffffffffffffffffffffffff1681565b60046020528060005260406000206000915054906101000a900460ff1681565b600073ffffffffffffffffffffffffffffffffffffffff82169050919050565b60006106ca8261069f565b9050919050565b6106da816106bf565b82525050565b60006020820190506106f560008301846106d1565b92915050565b6000819050919050565b61070e816106fb565b82525050565b60006020820190506107296000830184610705565b92915050565b600080fd5b61073d816106fb565b811461074857600080fd5b50565b60008135905061075a81610734565b92915050565b6000602082840312156107765761077561072f565b5b60006107848482850161074b565b91505092915050565b60006107988261069f565b9050919050565b6107a88161078d565b82525050565b60006020820190506107c3600083018461079f565b92915050565b6107d28161078d565b81146107dd57600080fd5b50565b6000813590506107ef816107c9565b92915050565b6000806000806080858703121561080f5761080e61072f565b5b600061081d8782880161074b565b945050602061082e878288016107e0565b935050604061083f8782880161074b565b92505060606108508782880161074b565b91505092959194509250565b60008115159050919050565b6108718161085c565b82525050565b600060208201905061088c6000830184610868565b92915050565b600082825260208201905092915050565b7f4f6e6c792073656c6c65722063616e2063616c6c2074686973206d6574686f64600082015250565b60006108d9602083610892565b91506108e4826108a3565b602082019050919050565b60006020820190508181036000830152610908816108cc565b9050919050565b6000606082019050610924600083018661079f565b610931602083018561079f565b61093e6040830184610705565b949350505050565b7f4f6e6c792062757965722063616e2063616c6c2074686973206d6574686f6400600082015250565b600061097c601f83610892565b915061098782610946565b602082019050919050565b600060208201905081810360008301526109ab8161096f565b9050919050565b7f416d6f756e74206e6565647320746f206265206d6f7265207468616e2065736360008201527f726f7720616d6f756e7400000000000000000000000000000000000000000000602082015250565b6000610a0e602a83610892565b9150610a19826109b2565b604082019050919050565b60006020820190508181036000830152610a3d81610a01565b905091905056fea2646970667358221220673249baabde2a8a1b27f0a38521f6de09efafedb42da9bf672d7bfbe1e6391864736f6c63430008110033",
  "linkReferences": {},
  "deployedLinkReferences": {}
}